{
  "contractName": "ProductManagement",
  "abi": [
    {
      "anonymous": false,
      "inputs": [
        {
          "indexed": true,
          "internalType": "uint256",
          "name": "productId",
          "type": "uint256"
        },
        {
          "indexed": true,
          "internalType": "address",
          "name": "previousOwner",
          "type": "address"
        },
        {
          "indexed": true,
          "internalType": "address",
          "name": "newOwner",
          "type": "address"
        },
        {
          "indexed": false,
          "internalType": "uint256",
          "name": "quantity",
          "type": "uint256"
        }
      ],
      "name": "OwnershipTransferred",
      "type": "event"
    },
    {
      "anonymous": false,
      "inputs": [
        {
          "indexed": true,
          "internalType": "uint256",
          "name": "productId",
          "type": "uint256"
        },
        {
          "indexed": false,
          "internalType": "string",
          "name": "batchNumber",
          "type": "string"
        },
        {
          "indexed": false,
          "internalType": "address",
          "name": "owner",
          "type": "address"
        }
      ],
      "name": "ProductCreated",
      "type": "event"
    },
    {
      "anonymous": false,
      "inputs": [
        {
          "indexed": true,
          "internalType": "uint256",
          "name": "productId",
          "type": "uint256"
        },
        {
          "indexed": false,
          "internalType": "string",
          "name": "newStatus",
          "type": "string"
        }
      ],
      "name": "StatusUpdated",
      "type": "event"
    },
    {
      "inputs": [],
      "name": "productCount",
      "outputs": [
        {
          "internalType": "uint256",
          "name": "",
          "type": "uint256"
        }
      ],
      "stateMutability": "view",
      "type": "function",
      "constant": true
    },
    {
      "inputs": [
        {
          "internalType": "uint256",
          "name": "",
          "type": "uint256"
        }
      ],
      "name": "products",
      "outputs": [
        {
          "internalType": "string",
          "name": "batchNumber",
          "type": "string"
        },
        {
          "internalType": "string",
          "name": "productType",
          "type": "string"
        },
        {
          "internalType": "string",
          "name": "origin",
          "type": "string"
        },
        {
          "internalType": "uint256",
          "name": "productionDate",
          "type": "uint256"
        },
        {
          "internalType": "uint256",
          "name": "quantity",
          "type": "uint256"
        },
        {
          "internalType": "address",
          "name": "currentOwner",
          "type": "address"
        },
        {
          "internalType": "string",
          "name": "status",
          "type": "string"
        }
      ],
      "stateMutability": "view",
      "type": "function",
      "constant": true
    },
    {
      "inputs": [
        {
          "internalType": "string",
          "name": "_batchNumber",
          "type": "string"
        },
        {
          "internalType": "string",
          "name": "_productType",
          "type": "string"
        },
        {
          "internalType": "string",
          "name": "_origin",
          "type": "string"
        },
        {
          "internalType": "uint256",
          "name": "_productionDate",
          "type": "uint256"
        },
        {
          "internalType": "uint256",
          "name": "_quantity",
          "type": "uint256"
        }
      ],
      "name": "createProduct",
      "outputs": [],
      "stateMutability": "nonpayable",
      "type": "function"
    },
    {
      "inputs": [
        {
          "internalType": "uint256",
          "name": "_productId",
          "type": "uint256"
        },
        {
          "internalType": "string",
          "name": "_newStatus",
          "type": "string"
        }
      ],
      "name": "updateProductStatus",
      "outputs": [],
      "stateMutability": "nonpayable",
      "type": "function"
    },
    {
      "inputs": [
        {
          "internalType": "uint256",
          "name": "_productId",
          "type": "uint256"
        },
        {
          "internalType": "address",
          "name": "_newOwner",
          "type": "address"
        },
        {
          "internalType": "uint256",
          "name": "_quantity",
          "type": "uint256"
        }
      ],
      "name": "transferOwnership",
      "outputs": [],
      "stateMutability": "nonpayable",
      "type": "function"
    },
    {
      "inputs": [
        {
          "internalType": "uint256",
          "name": "_productId",
          "type": "uint256"
        }
      ],
      "name": "getProduct",
      "outputs": [
        {
          "internalType": "string",
          "name": "",
          "type": "string"
        },
        {
          "internalType": "string",
          "name": "",
          "type": "string"
        },
        {
          "internalType": "string",
          "name": "",
          "type": "string"
        },
        {
          "internalType": "uint256",
          "name": "",
          "type": "uint256"
        },
        {
          "internalType": "uint256",
          "name": "",
          "type": "uint256"
        },
        {
          "internalType": "address",
          "name": "",
          "type": "address"
        },
        {
          "internalType": "string",
          "name": "",
          "type": "string"
        }
      ],
      "stateMutability": "view",
      "type": "function",
      "constant": true
    }
  ],
  "bytecode": "0x608060405234801561001057600080fd5b506118c7806100206000396000f3fe608060405234801561001057600080fd5b50600436106100625760003560e01c80631a481ecf1461006757806370435c99146100835780637acc0b201461009f578063b9db15b4146100d5578063ba4295781461010b578063e0f6ef8714610127575b600080fd5b610081600480360381019061007c9190611110565b610145565b005b61009d600480360381019061009891906111f8565b610304565b005b6100b960048036038101906100b491906111cf565b61092e565b6040516100cc97969594939291906114d0565b60405180910390f35b6100ef60048036038101906100ea91906111cf565b610bb0565b60405161010297969594939291906114d0565b60405180910390f35b61012560048036038101906101209190611247565b610ecc565b005b61012f610fd5565b60405161013c91906115eb565b60405180910390f35b600160008154809291906101589061177c565b91905055506040518060e001604052808681526020018581526020018481526020018381526020018281526020013373ffffffffffffffffffffffffffffffffffffffff1681526020016040518060400160405280600a81526020017f52656769737465726564000000000000000000000000000000000000000000008152508152506000806001548152602001908152602001600020600082015181600001908051906020019061020b929190610fdb565b506020820151816001019080519060200190610228929190610fdb565b506040820151816002019080519060200190610245929190610fdb565b50606082015181600301556080820151816004015560a08201518160050160006101000a81548173ffffffffffffffffffffffffffffffffffffffff021916908373ffffffffffffffffffffffffffffffffffffffff16021790555060c08201518160060190805190602001906102bd929190610fdb565b509050506001547faf6ffb6277511513e7d579327cc1fc57f0266df2fb11a60b13487b8c9cd2c38886336040516102f59291906114a0565b60405180910390a25050505050565b3373ffffffffffffffffffffffffffffffffffffffff1660008085815260200190815260200160002060050160009054906101000a900473ffffffffffffffffffffffffffffffffffffffff1673ffffffffffffffffffffffffffffffffffffffff16146103a7576040517f08c379a000000000000000000000000000000000000000000000000000000000815260040161039e906115cb565b60405180910390fd5b600080848152602001908152602001600020600401548111156103ff576040517f08c379a00000000000000000000000000000000000000000000000000000000081526004016103f6906115ab565b60405180910390fd5b8060008085815260200190815260200160002060040160008282546104249190611698565b925050819055508173ffffffffffffffffffffffffffffffffffffffff163373ffffffffffffffffffffffffffffffffffffffff16847f06f354ec7b9d2ca4e029f73ccb9119943a48c3295704dd66ca8beda0c7bae33f8460405161048991906115eb565b60405180910390a46000806000858152602001908152602001600020600401541415610508578160008085815260200190815260200160002060050160006101000a81548173ffffffffffffffffffffffffffffffffffffffff021916908373ffffffffffffffffffffffffffffffffffffffff160217905550610929565b6001600081548092919061051b9061177c565b91905055506040518060e00160405280600080868152602001908152602001600020600001805461054b9061174a565b80601f01602080910402602001604051908101604052809291908181526020018280546105779061174a565b80156105c45780601f10610599576101008083540402835291602001916105c4565b820191906000526020600020905b8154815290600101906020018083116105a757829003601f168201915b5050505050815260200160008086815260200190815260200160002060010180546105ee9061174a565b80601f016020809104026020016040519081016040528092919081815260200182805461061a9061174a565b80156106675780601f1061063c57610100808354040283529160200191610667565b820191906000526020600020905b81548152906001019060200180831161064a57829003601f168201915b5050505050815260200160008086815260200190815260200160002060020180546106919061174a565b80601f01602080910402602001604051908101604052809291908181526020018280546106bd9061174a565b801561070a5780601f106106df5761010080835404028352916020019161070a565b820191906000526020600020905b8154815290600101906020018083116106ed57829003601f168201915b505050505081526020016000808681526020019081526020016000206003015481526020018281526020018373ffffffffffffffffffffffffffffffffffffffff16815260200160008086815260200190815260200160002060060180546107719061174a565b80601f016020809104026020016040519081016040528092919081815260200182805461079d9061174a565b80156107ea5780601f106107bf576101008083540402835291602001916107ea565b820191906000526020600020905b8154815290600101906020018083116107cd57829003601f168201915b505050505081525060008060015481526020019081526020016000206000820151816000019080519060200190610822929190610fdb565b50602082015181600101908051906020019061083f929190610fdb565b50604082015181600201908051906020019061085c929190610fdb565b50606082015181600301556080820151816004015560a08201518160050160006101000a81548173ffffffffffffffffffffffffffffffffffffffff021916908373ffffffffffffffffffffffffffffffffffffffff16021790555060c08201518160060190805190602001906108d4929190610fdb565b509050506001547faf6ffb6277511513e7d579327cc1fc57f0266df2fb11a60b13487b8c9cd2c3886000808681526020019081526020016000206000018460405161092092919061155b565b60405180910390a25b505050565b60006020528060005260406000206000915090508060000180546109519061174a565b80601f016020809104026020016040519081016040528092919081815260200182805461097d9061174a565b80156109ca5780601f1061099f576101008083540402835291602001916109ca565b820191906000526020600020905b8154815290600101906020018083116109ad57829003601f168201915b5050505050908060010180546109df9061174a565b80601f0160208091040260200160405190810160405280929190818152602001828054610a0b9061174a565b8015610a585780601f10610a2d57610100808354040283529160200191610a58565b820191906000526020600020905b815481529060010190602001808311610a3b57829003601f168201915b505050505090806002018054610a6d9061174a565b80601f0160208091040260200160405190810160405280929190818152602001828054610a999061174a565b8015610ae65780601f10610abb57610100808354040283529160200191610ae6565b820191906000526020600020905b815481529060010190602001808311610ac957829003601f168201915b5050505050908060030154908060040154908060050160009054906101000a900473ffffffffffffffffffffffffffffffffffffffff1690806006018054610b2d9061174a565b80601f0160208091040260200160405190810160405280929190818152602001828054610b599061174a565b8015610ba65780601f10610b7b57610100808354040283529160200191610ba6565b820191906000526020600020905b815481529060010190602001808311610b8957829003601f168201915b5050505050905087565b60608060606000806000606060008060008a81526020019081526020016000206040518060e0016040529081600082018054610beb9061174a565b80601f0160208091040260200160405190810160405280929190818152602001828054610c179061174a565b8015610c645780601f10610c3957610100808354040283529160200191610c64565b820191906000526020600020905b815481529060010190602001808311610c4757829003601f168201915b50505050508152602001600182018054610c7d9061174a565b80601f0160208091040260200160405190810160405280929190818152602001828054610ca99061174a565b8015610cf65780601f10610ccb57610100808354040283529160200191610cf6565b820191906000526020600020905b815481529060010190602001808311610cd957829003601f168201915b50505050508152602001600282018054610d0f9061174a565b80601f0160208091040260200160405190810160405280929190818152602001828054610d3b9061174a565b8015610d885780601f10610d5d57610100808354040283529160200191610d88565b820191906000526020600020905b815481529060010190602001808311610d6b57829003601f168201915b5050505050815260200160038201548152602001600482015481526020016005820160009054906101000a900473ffffffffffffffffffffffffffffffffffffffff1673ffffffffffffffffffffffffffffffffffffffff1673ffffffffffffffffffffffffffffffffffffffff168152602001600682018054610e0b9061174a565b80601f0160208091040260200160405190810160405280929190818152602001828054610e379061174a565b8015610e845780601f10610e5957610100808354040283529160200191610e84565b820191906000526020600020905b815481529060010190602001808311610e6757829003601f168201915b5050505050815250509050806000015181602001518260400151836060015184608001518560a001518660c00151975097509750975097509750975050919395979092949650565b3373ffffffffffffffffffffffffffffffffffffffff1660008084815260200190815260200160002060050160009054906101000a900473ffffffffffffffffffffffffffffffffffffffff1673ffffffffffffffffffffffffffffffffffffffff1614610f6f576040517f08c379a0000000000000000000000000000000000000000000000000000000008152600401610f669061158b565b60405180910390fd5b806000808481526020019081526020016000206006019080519060200190610f98929190610fdb565b50817fdc280875b120650ffe3edf5f724f07fd086361a32c2a387fe34b495f5679e77d82604051610fc9919061147e565b60405180910390a25050565b60015481565b828054610fe79061174a565b90600052602060002090601f0160209004810192826110095760008555611050565b82601f1061102257805160ff1916838001178555611050565b82800160010185558215611050579182015b8281111561104f578251825591602001919060010190611034565b5b50905061105d9190611061565b5090565b5b8082111561107a576000816000905550600101611062565b5090565b600061109161108c84611637565b611606565b9050828152602081018484840111156110a957600080fd5b6110b4848285611708565b509392505050565b6000813590506110cb81611863565b92915050565b600082601f8301126110e257600080fd5b81356110f284826020860161107e565b91505092915050565b60008135905061110a8161187a565b92915050565b600080600080600060a0868803121561112857600080fd5b600086013567ffffffffffffffff81111561114257600080fd5b61114e888289016110d1565b955050602086013567ffffffffffffffff81111561116b57600080fd5b611177888289016110d1565b945050604086013567ffffffffffffffff81111561119457600080fd5b6111a0888289016110d1565b93505060606111b1888289016110fb565b92505060806111c2888289016110fb565b9150509295509295909350565b6000602082840312156111e157600080fd5b60006111ef848285016110fb565b91505092915050565b60008060006060848603121561120d57600080fd5b600061121b868287016110fb565b935050602061122c868287016110bc565b925050604061123d868287016110fb565b9150509250925092565b6000806040838503121561125a57600080fd5b6000611268858286016110fb565b925050602083013567ffffffffffffffff81111561128557600080fd5b611291858286016110d1565b9150509250929050565b6112a4816116cc565b82525050565b60006112b58261167c565b6112bf8185611687565b93506112cf818560208601611717565b6112d881611852565b840191505092915050565b600081546112f08161174a565b6112fa8186611687565b9450600182166000811461131557600181146113275761135a565b60ff198316865260208601935061135a565b61133085611667565b60005b8381101561135257815481890152600182019150602081019050611333565b808801955050505b50505092915050565b6000611370602c83611687565b91507f4f6e6c79207468652063757272656e74206f776e65722063616e20757064617460008301527f65207468652073746174757300000000000000000000000000000000000000006020830152604082019050919050565b60006113d6601583611687565b91507f496e73756666696369656e74207175616e7469747900000000000000000000006000830152602082019050919050565b6000611416602d83611687565b91507f4f6e6c79207468652063757272656e74206f776e65722063616e207472616e7360008301527f666572206f776e657273686970000000000000000000000000000000000000006020830152604082019050919050565b611478816116fe565b82525050565b6000602082019050818103600083015261149881846112aa565b905092915050565b600060408201905081810360008301526114ba81856112aa565b90506114c9602083018461129b565b9392505050565b600060e08201905081810360008301526114ea818a6112aa565b905081810360208301526114fe81896112aa565b9050818103604083015261151281886112aa565b9050611521606083018761146f565b61152e608083018661146f565b61153b60a083018561129b565b81810360c083015261154d81846112aa565b905098975050505050505050565b6000604082019050818103600083015261157581856112e3565b9050611584602083018461129b565b9392505050565b600060208201905081810360008301526115a481611363565b9050919050565b600060208201905081810360008301526115c4816113c9565b9050919050565b600060208201905081810360008301526115e481611409565b9050919050565b6000602082019050611600600083018461146f565b92915050565b6000604051905081810181811067ffffffffffffffff8211171561162d5761162c611823565b5b8060405250919050565b600067ffffffffffffffff82111561165257611651611823565b5b601f19601f8301169050602081019050919050565b60008190508160005260206000209050919050565b600081519050919050565b600082825260208201905092915050565b60006116a3826116fe565b91506116ae836116fe565b9250828210156116c1576116c06117c5565b5b828203905092915050565b60006116d7826116de565b9050919050565b600073ffffffffffffffffffffffffffffffffffffffff82169050919050565b6000819050919050565b82818337600083830152505050565b60005b8381101561173557808201518184015260208101905061171a565b83811115611744576000848401525b50505050565b6000600282049050600182168061176257607f821691505b60208210811415611776576117756117f4565b5b50919050565b6000611787826116fe565b91507fffffffffffffffffffffffffffffffffffffffffffffffffffffffffffffffff8214156117ba576117b96117c5565b5b600182019050919050565b7f4e487b7100000000000000000000000000000000000000000000000000000000600052601160045260246000fd5b7f4e487b7100000000000000000000000000000000000000000000000000000000600052602260045260246000fd5b7f4e487b7100000000000000000000000000000000000000000000000000000000600052604160045260246000fd5b6000601f19601f8301169050919050565b61186c816116cc565b811461187757600080fd5b50565b611883816116fe565b811461188e57600080fd5b5056fea264697066735822122044f3fc52131eca99692358bb82aa83b9a9d1e16376198b1c9807e1902a236de264736f6c63430008000033",
  "immutableReferences": {},
  "source": "// SPDX-License-Identifier: MIT\npragma solidity ^0.8.0;\n\ncontract ProductManagement {\n    struct Product {\n        string batchNumber;\n        string productType;\n        string origin;\n        uint256 productionDate;\n        uint256 quantity;\n        address currentOwner;\n        string status;\n    }\n\n    mapping(uint256 => Product) public products;\n    uint256 public productCount;\n\n    event ProductCreated(\n        uint256 indexed productId,\n        string batchNumber,\n        address owner\n    );\n    event StatusUpdated(uint256 indexed productId, string newStatus);\n    event OwnershipTransferred(\n        uint256 indexed productId,\n        address indexed previousOwner,\n        address indexed newOwner,\n        uint256 quantity\n    );\n\n    function createProduct(\n        string memory _batchNumber,\n        string memory _productType,\n        string memory _origin,\n        uint256 _productionDate,\n        uint256 _quantity\n    ) public {\n        productCount++;\n        products[productCount] = Product(\n            _batchNumber,\n            _productType,\n            _origin,\n            _productionDate,\n            _quantity,\n            msg.sender,\n            \"Registered\"\n        );\n        emit ProductCreated(productCount, _batchNumber, msg.sender);\n    }\n\n    function updateProductStatus(\n        uint256 _productId,\n        string memory _newStatus\n    ) public {\n        require(\n            products[_productId].currentOwner == msg.sender,\n            \"Only the current owner can update the status\"\n        );\n        products[_productId].status = _newStatus;\n        emit StatusUpdated(_productId, _newStatus);\n    }\n\n    function transferOwnership(\n        uint256 _productId,\n        address _newOwner,\n        uint256 _quantity\n    ) public {\n        require(\n            products[_productId].currentOwner == msg.sender,\n            \"Only the current owner can transfer ownership\"\n        );\n        require(\n            _quantity <= products[_productId].quantity,\n            \"Insufficient quantity\"\n        );\n\n        products[_productId].quantity -= _quantity;\n        emit OwnershipTransferred(_productId, msg.sender, _newOwner, _quantity);\n\n        if (products[_productId].quantity == 0) {\n            products[_productId].currentOwner = _newOwner;\n        } else {\n            // Create a new product for the transferred quantity\n            productCount++;\n            products[productCount] = Product(\n                products[_productId].batchNumber,\n                products[_productId].productType,\n                products[_productId].origin,\n                products[_productId].productionDate,\n                _quantity,\n                _newOwner,\n                products[_productId].status\n            );\n            emit ProductCreated(\n                productCount,\n                products[_productId].batchNumber,\n                _newOwner\n            );\n        }\n    }\n\n    function getProduct(\n        uint256 _productId\n    )\n        public\n        view\n        returns (\n            string memory,\n            string memory,\n            string memory,\n            uint256,\n            uint256,\n            address,\n            string memory\n        )\n    {\n        Product memory product = products[_productId];\n        return (\n            product.batchNumber,\n            product.productType,\n            product.origin,\n            product.productionDate,\n            product.quantity,\n            product.currentOwner,\n            product.status\n        );\n    }\n}\n",
  "sourcePath": "/Users/ben/Documents/2207870 FARMILY/contracts/ProductManagement.sol",
  "compiler": {
    "name": "solc",
    "version": "0.8.0+commit.c7dfd78e.Emscripten.clang"
  },
  "schemaVersion": "3.4.16",
  "updatedAt": "2024-08-28T16:03:19.049Z",
  "networkType": "ethereum",
  "devdoc": {
    "kind": "dev",
    "methods": {},
    "version": 1
  },
  "userdoc": {
    "kind": "user",
    "methods": {},
    "version": 1
  }
}